{
    "_format": "hh-sol-artifact-1",
    "contractName": "Escrow",
    "sourceName": "contracts/Escrow.sol",
    "abi": [
        {
            "inputs": [
                {
                    "internalType": "address",
                    "name": "_seller",
                    "type": "address"
                },
                {
                    "internalType": "address",
                    "name": "_token",
                    "type": "address"
                },
                {
                    "internalType": "uint256",
                    "name": "_unitPrice",
                    "type": "uint256"
                },
                {
                    "internalType": "uint256",
                    "name": "_unitsNeeded",
                    "type": "uint256"
                },
                {
                    "internalType": "uint256",
                    "name": "_dueTimestamp",
                    "type": "uint256"
                },
                {
                    "internalType": "address",
                    "name": "_operator",
                    "type": "address"
                },
                {
                    "internalType": "address",
                    "name": "_factoryCreator",
                    "type": "address"
                }
            ],
            "stateMutability": "nonpayable",
            "type": "constructor"
        },
        {
            "inputs": [],
            "name": "EnforcedPause",
            "type": "error"
        },
        {
            "inputs": [],
            "name": "ExpectedPause",
            "type": "error"
        },
        {
            "inputs": [],
            "name": "ReentrancyGuardReentrantCall",
            "type": "error"
        },
        {
            "inputs": [
                {
                    "internalType": "address",
                    "name": "token",
                    "type": "address"
                }
            ],
            "name": "SafeERC20FailedOperation",
            "type": "error"
        },
        {
            "anonymous": false,
            "inputs": [],
            "name": "Cancelled",
            "type": "event"
        },
        {
            "anonymous": false,
            "inputs": [],
            "name": "Closed",
            "type": "event"
        },
        {
            "anonymous": false,
            "inputs": [
                {
                    "indexed": true,
                    "internalType": "address",
                    "name": "buyer",
                    "type": "address"
                },
                {
                    "indexed": false,
                    "internalType": "uint256",
                    "name": "units",
                    "type": "uint256"
                },
                {
                    "indexed": false,
                    "internalType": "uint256",
                    "name": "amount",
                    "type": "uint256"
                }
            ],
            "name": "Contributed",
            "type": "event"
        },
        {
            "anonymous": false,
            "inputs": [
                {
                    "indexed": false,
                    "internalType": "uint256",
                    "name": "totalUnits",
                    "type": "uint256"
                },
                {
                    "indexed": false,
                    "internalType": "uint256",
                    "name": "totalTokens",
                    "type": "uint256"
                }
            ],
            "name": "Fulfilled",
            "type": "event"
        },
        {
            "anonymous": false,
            "inputs": [
                {
                    "indexed": false,
                    "internalType": "address",
                    "name": "account",
                    "type": "address"
                }
            ],
            "name": "Paused",
            "type": "event"
        },
        {
            "anonymous": false,
            "inputs": [
                {
                    "indexed": false,
                    "internalType": "uint256",
                    "name": "newUnitPrice",
                    "type": "uint256"
                },
                {
                    "indexed": false,
                    "internalType": "uint256",
                    "name": "newDueTimestamp",
                    "type": "uint256"
                }
            ],
            "name": "RateRevised",
            "type": "event"
        },
        {
            "anonymous": false,
            "inputs": [
                {
                    "indexed": true,
                    "internalType": "address",
                    "name": "buyer",
                    "type": "address"
                },
                {
                    "indexed": false,
                    "internalType": "uint256",
                    "name": "amount",
                    "type": "uint256"
                }
            ],
            "name": "RefundWithdrawn",
            "type": "event"
        },
        {
            "anonymous": false,
            "inputs": [
                {
                    "indexed": false,
                    "internalType": "uint256",
                    "name": "amount",
                    "type": "uint256"
                }
            ],
            "name": "ReleasedToSeller",
            "type": "event"
        },
        {
            "anonymous": false,
            "inputs": [
                {
                    "indexed": false,
                    "internalType": "address",
                    "name": "account",
                    "type": "address"
                }
            ],
            "name": "Unpaused",
            "type": "event"
        },
        {
            "inputs": [
                {
                    "internalType": "address",
                    "name": "",
                    "type": "address"
                }
            ],
            "name": "buyerPaid",
            "outputs": [
                {
                    "internalType": "uint256",
                    "name": "",
                    "type": "uint256"
                }
            ],
            "stateMutability": "view",
            "type": "function"
        },
        {
            "inputs": [
                {
                    "internalType": "address",
                    "name": "",
                    "type": "address"
                }
            ],
            "name": "buyerUnits",
            "outputs": [
                {
                    "internalType": "uint256",
                    "name": "",
                    "type": "uint256"
                }
            ],
            "stateMutability": "view",
            "type": "function"
        },
        {
            "inputs": [],
            "name": "cancelAndRefund",
            "outputs": [],
            "stateMutability": "nonpayable",
            "type": "function"
        },
        {
            "inputs": [],
            "name": "cancelled",
            "outputs": [
                {
                    "internalType": "bool",
                    "name": "",
                    "type": "bool"
                }
            ],
            "stateMutability": "view",
            "type": "function"
        },
        {
            "inputs": [],
            "name": "close",
            "outputs": [],
            "stateMutability": "nonpayable",
            "type": "function"
        },
        {
            "inputs": [],
            "name": "closed",
            "outputs": [
                {
                    "internalType": "bool",
                    "name": "",
                    "type": "bool"
                }
            ],
            "stateMutability": "view",
            "type": "function"
        },
        {
            "inputs": [
                {
                    "internalType": "uint256",
                    "name": "units",
                    "type": "uint256"
                }
            ],
            "name": "contribute",
            "outputs": [],
            "stateMutability": "nonpayable",
            "type": "function"
        },
        {
            "inputs": [],
            "name": "dueTimestamp",
            "outputs": [
                {
                    "internalType": "uint256",
                    "name": "",
                    "type": "uint256"
                }
            ],
            "stateMutability": "view",
            "type": "function"
        },
        {
            "inputs": [],
            "name": "factoryCreator",
            "outputs": [
                {
                    "internalType": "address",
                    "name": "",
                    "type": "address"
                }
            ],
            "stateMutability": "view",
            "type": "function"
        },
        {
            "inputs": [],
            "name": "finalizeAfterDue",
            "outputs": [],
            "stateMutability": "nonpayable",
            "type": "function"
        },
        {
            "inputs": [],
            "name": "fulfilled",
            "outputs": [
                {
                    "internalType": "bool",
                    "name": "",
                    "type": "bool"
                }
            ],
            "stateMutability": "view",
            "type": "function"
        },
        {
            "inputs": [],
            "name": "operator",
            "outputs": [
                {
                    "internalType": "address",
                    "name": "",
                    "type": "address"
                }
            ],
            "stateMutability": "view",
            "type": "function"
        },
        {
            "inputs": [],
            "name": "paused",
            "outputs": [
                {
                    "internalType": "bool",
                    "name": "",
                    "type": "bool"
                }
            ],
            "stateMutability": "view",
            "type": "function"
        },
        {
            "inputs": [
                {
                    "internalType": "uint256",
                    "name": "amount",
                    "type": "uint256"
                }
            ],
            "name": "releaseToSeller",
            "outputs": [],
            "stateMutability": "nonpayable",
            "type": "function"
        },
        {
            "inputs": [
                {
                    "internalType": "uint256",
                    "name": "newUnitPrice",
                    "type": "uint256"
                },
                {
                    "internalType": "uint256",
                    "name": "newDueTimestamp",
                    "type": "uint256"
                }
            ],
            "name": "reviseRate",
            "outputs": [],
            "stateMutability": "nonpayable",
            "type": "function"
        },
        {
            "inputs": [],
            "name": "seller",
            "outputs": [
                {
                    "internalType": "address",
                    "name": "",
                    "type": "address"
                }
            ],
            "stateMutability": "view",
            "type": "function"
        },
        {
            "inputs": [],
            "name": "token",
            "outputs": [
                {
                    "internalType": "contract IERC20",
                    "name": "",
                    "type": "address"
                }
            ],
            "stateMutability": "view",
            "type": "function"
        },
        {
            "inputs": [],
            "name": "tokenDecimals",
            "outputs": [
                {
                    "internalType": "uint8",
                    "name": "",
                    "type": "uint8"
                }
            ],
            "stateMutability": "view",
            "type": "function"
        },
        {
            "inputs": [],
            "name": "totalTokenEscrowed",
            "outputs": [
                {
                    "internalType": "uint256",
                    "name": "",
                    "type": "uint256"
                }
            ],
            "stateMutability": "view",
            "type": "function"
        },
        {
            "inputs": [],
            "name": "totalUnitsCommitted",
            "outputs": [
                {
                    "internalType": "uint256",
                    "name": "",
                    "type": "uint256"
                }
            ],
            "stateMutability": "view",
            "type": "function"
        },
        {
            "inputs": [],
            "name": "unitPrice",
            "outputs": [
                {
                    "internalType": "uint256",
                    "name": "",
                    "type": "uint256"
                }
            ],
            "stateMutability": "view",
            "type": "function"
        },
        {
            "inputs": [],
            "name": "unitsNeeded",
            "outputs": [
                {
                    "internalType": "uint256",
                    "name": "",
                    "type": "uint256"
                }
            ],
            "stateMutability": "view",
            "type": "function"
        },
        {
            "inputs": [],
            "name": "withdrawRefund",
            "outputs": [],
            "stateMutability": "nonpayable",
            "type": "function"
        }
    ],
    "bytecode": "0x60c06040523480156200001157600080fd5b506040516200102238038062001022833981016040819052620000349162000130565b6001600081905580546001600160a01b03808a1661010002610100600160a81b031990921691909117909155861660808190526040805163313ce56760e01b8152905163313ce567916004808201926020929091908290030181865afa158015620000a3573d6000803e3d6000fd5b505050506040513d601f19601f82011682018060405250810190620000c99190620001aa565b60ff1660a052600494909455600592909255600655600280546001600160a01b039283166001600160a01b0319918216179091556003805492909316911617905550620001d69050565b80516001600160a01b03811681146200012b57600080fd5b919050565b600080600080600080600060e0888a0312156200014c57600080fd5b620001578862000113565b9650620001676020890162000113565b95506040880151945060608801519350608088015192506200018c60a0890162000113565b91506200019c60c0890162000113565b905092959891949750929550565b600060208284031215620001bd57600080fd5b815160ff81168114620001cf57600080fd5b9392505050565b60805160a051610e1162000211600039600061020801526000818161030e0152818161042e015281816106810152610acd0152610e116000f3fe608060405234801561001057600080fd5b506004361061014d5760003560e01c8063570ca735116100c3578063b81079071161007c578063b8107907146102c4578063c1cbbca7146102cd578063e27c3b2c146102e0578063e2d46f98146102f3578063e73faa2d14610300578063fc0c546a1461030957600080fd5b8063570ca73514610255578063597e1fb5146102685780635c975abb1461028b5780637494cbee14610296578063858a404a146102a95780639a82a09a146102b257600080fd5b806333e233111161011557806333e23311146101e7578063359efa9d146101fa5780633b97e8561461020357806343d726d61461023c5780634d02bc55146102445780635451073d1461024c57600080fd5b806308551a53146101525780630d0e3c2714610187578063110f8874146101b55780632009dc65146101bf5780632ddffa97146101c7575b600080fd5b60015461016a9061010090046001600160a01b031681565b6040516001600160a01b0390911681526020015b60405180910390f35b6101a7610195366004610d17565b600b6020526000908152604090205481565b60405190815260200161017e565b6101bd610330565b005b6101bd610497565b6101a76101d5366004610d17565b600a6020526000908152604090205481565b6101bd6101f5366004610d47565b61057a565b6101a760085481565b61022a7f000000000000000000000000000000000000000000000000000000000000000081565b60405160ff909116815260200161017e565b6101bd6106ef565b6101bd6107b4565b6101a760065481565b60025461016a906001600160a01b031681565b60075461027b9062010000900460ff1681565b604051901515815260200161017e565b60015460ff1661027b565b6101bd6102a4366004610d60565b6108ef565b6101a760055481565b60075461027b90610100900460ff1681565b6101a760095481565b6101bd6102db366004610d47565b6109db565b60035461016a906001600160a01b031681565b60075461027b9060ff1681565b6101a760045481565b61016a7f000000000000000000000000000000000000000000000000000000000000000081565b610338610bb5565b610340610bdf565b600754610100900460ff1680610365575060075460ff16158015610365575060065442115b6103a25760405162461bcd60e51b81526020600482015260096024820152681393d7d4915195539160ba1b60448201526064015b60405180910390fd5b336000908152600b6020526040902054806103ea5760405162461bcd60e51b815260206004820152600860248201526716915493d7d0905360c21b6044820152606401610399565b336000908152600b60209081526040808320839055600a90915281208190556009805483929061041b908490610d98565b9091555061045590506001600160a01b037f0000000000000000000000000000000000000000000000000000000000000000163383610c03565b60405181815233907f3d97f39b86d061200a7834082f5926e58ec10fd85a9d6930f497729d5e6cc35c9060200160405180910390a2506104956001600055565b565b60075460ff16156104de5760405162461bcd60e51b81526020600482015260116024820152701053149150511657d19553119253131151607a1b6044820152606401610399565b60015461010090046001600160a01b031633148061050657506002546001600160a01b031633145b6105405760405162461bcd60e51b815260206004820152600b60248201526a1393d517d0531313d5d15160aa1b6044820152606401610399565b6007805461ff0019166101001790556040517f63b958841f79ab97cb5456da181454b9932c0e15a3b17f1cbd27e2a8bc61043790600090a1565b610582610bb5565b6002546001600160a01b031633146105cc5760405162461bcd60e51b815260206004820152600d60248201526c27a7262cafa7a822a920aa27a960991b6044820152606401610399565b6105d4610bdf565b60075460ff166106165760405162461bcd60e51b815260206004820152600d60248201526c1393d517d19553119253131151609a1b6044820152606401610399565b6009548111156106595760405162461bcd60e51b815260206004820152600e60248201526d455843454544535f455343524f5760901b6044820152606401610399565b806009600082825461066b9190610d98565b90915550506001546106af906001600160a01b037f000000000000000000000000000000000000000000000000000000000000000081169161010090041683610c03565b6040518181527fe09a7a00ba592e617594ab77968e8ac06186003668e89f121a066a1364b3c0349060200160405180910390a16106ec6001600055565b50565b6002546001600160a01b031633146107395760405162461bcd60e51b815260206004820152600d60248201526c27a7262cafa7a822a920aa27a960991b6044820152606401610399565b600954156107785760405162461bcd60e51b815260206004820152600c60248201526b232aa72229afa922a6a0a4a760a11b6044820152606401610399565b6007805462ff00001916620100001790556040517f1cdde67b72a90f19919ac732a437ac2f7a10fc128d28c2a6e525d89ce5cd9d3a90600090a1565b6107bc610bb5565b6107c4610bdf565b600754610100900460ff16156108085760405162461bcd60e51b815260206004820152600960248201526810d05390d15313115160ba1b6044820152606401610399565b60075462010000900460ff161561084a5760405162461bcd60e51b815260206004820152600660248201526510d313d4d15160d21b6044820152606401610399565b60065442116108875760405162461bcd60e51b8152602060048201526009602482015268544f4f5f4541524c5960b81b6044820152606401610399565b600554600854106108e5576007805460ff191660011790556008546009546040517f03552feb4c9d8257f4955f6774479763e41183eebda15fc1c082baff44538598926108dc92908252602082015260400190565b60405180910390a15b6104956001600055565b60015461010090046001600160a01b0316331461093c5760405162461bcd60e51b815260206004820152600b60248201526a27a7262cafa9a2a62622a960a91b6044820152606401610399565b610944610bdf565b60075460ff16158015610958575060065442115b6109945760405162461bcd60e51b815260206004820152600d60248201526c43414e4e4f545f52455649534560981b6044820152606401610399565b6004829055600681905560408051838152602081018390527f6add6dceed7f2da75454499e64124b918df035dd3d82c6fb440e9000a87963c5910160405180910390a15050565b6109e3610bb5565b6109eb610bdf565b600754610100900460ff1615610a2f5760405162461bcd60e51b815260206004820152600960248201526810d05390d15313115160ba1b6044820152606401610399565b60075462010000900460ff1615610a715760405162461bcd60e51b815260206004820152600660248201526510d313d4d15160d21b6044820152606401610399565b600654421115610aae5760405162461bcd60e51b8152602060048201526008602482015267444541444c494e4560c01b6044820152606401610399565b600060045482610abe9190610db1565b9050610af56001600160a01b037f000000000000000000000000000000000000000000000000000000000000000016333084610c67565b336000908152600a602052604081208054849290610b14908490610dc8565b9091555050336000908152600b602052604081208054839290610b38908490610dc8565b925050819055508160086000828254610b519190610dc8565b925050819055508060096000828254610b6a9190610dc8565b9091555050604080518381526020810183905233917ffa35a310d7113dddce1c275da946348e9aaebf9050b00b372033c4d84b0bd6eb910160405180910390a2506106ec6001600055565b600260005403610bd857604051633ee5aeb560e01b815260040160405180910390fd5b6002600055565b60015460ff16156104955760405163d93c066560e01b815260040160405180910390fd5b6040516001600160a01b03838116602483015260448201839052610c6291859182169063a9059cbb906064015b604051602081830303815290604052915060e01b6020820180516001600160e01b038381831617835250505050610ca6565b505050565b6040516001600160a01b038481166024830152838116604483015260648201839052610ca09186918216906323b872dd90608401610c30565b50505050565b600080602060008451602086016000885af180610cc9576040513d6000823e3d81fd5b50506000513d91508115610ce1578060011415610cee565b6001600160a01b0384163b155b15610ca057604051635274afe760e01b81526001600160a01b0385166004820152602401610399565b600060208284031215610d2957600080fd5b81356001600160a01b0381168114610d4057600080fd5b9392505050565b600060208284031215610d5957600080fd5b5035919050565b60008060408385031215610d7357600080fd5b50508035926020909101359150565b634e487b7160e01b600052601160045260246000fd5b81810381811115610dab57610dab610d82565b92915050565b8082028115828204841417610dab57610dab610d82565b80820180821115610dab57610dab610d8256fea264697066735822122031a811b57c6d77dc08f43cb1ed1ee924b7a7c8c43cf7623c34640ee9374582c564736f6c63430008140033",
    "linkReferences": {},
    "deployedLinkReferences": {}
}